{
  "contractName": "CropTraceability",
  "abi": [
    {
      "inputs": [],
      "name": "cropCount",
      "outputs": [
        {
          "internalType": "uint256",
          "name": "",
          "type": "uint256"
        }
      ],
      "stateMutability": "view",
      "type": "function",
      "constant": true
    },
    {
      "inputs": [
        {
          "internalType": "uint256",
          "name": "",
          "type": "uint256"
        }
      ],
      "name": "crops",
      "outputs": [
        {
          "internalType": "string",
          "name": "cropName",
          "type": "string"
        },
        {
          "internalType": "string",
          "name": "farmerId",
          "type": "string"
        },
        {
          "internalType": "string",
          "name": "harvestDate",
          "type": "string"
        },
        {
          "internalType": "string",
          "name": "qualityData",
          "type": "string"
        }
      ],
      "stateMutability": "view",
      "type": "function",
      "constant": true
    },
    {
      "inputs": [
        {
          "internalType": "string",
          "name": "cropName",
          "type": "string"
        },
        {
          "internalType": "string",
          "name": "farmerId",
          "type": "string"
        },
        {
          "internalType": "string",
          "name": "harvestDate",
          "type": "string"
        },
        {
          "internalType": "string",
          "name": "qualityData",
          "type": "string"
        }
      ],
      "name": "registerCrop",
      "outputs": [],
      "stateMutability": "nonpayable",
      "type": "function"
    }
  ],
  "bytecode": "0x608060405234801561001057600080fd5b50610730806100206000396000f3fe608060405234801561001057600080fd5b50600436106100415760003560e01c8063509355221461004657806370c9f1a51461005b578063dfd55a2c14610087575b600080fd5b610059610054366004610426565b61009e565b005b61006e6100693660046104d3565b61013b565b60405161007e9493929190610532565b60405180910390f35b61009060015481565b60405190815260200161007e565b600180549060006100ae8361058a565b90915550506040805160808101825285815260208082018690528183018590526060820184905260015460009081529081905291909120815181906100f3908261063a565b5060208201516001820190610108908261063a565b506040820151600282019061011d908261063a565b5060608201516003820190610132908261063a565b50505050505050565b600060208190529081526040902080548190610156906105b1565b80601f0160208091040260200160405190810160405280929190818152602001828054610182906105b1565b80156101cf5780601f106101a4576101008083540402835291602001916101cf565b820191906000526020600020905b8154815290600101906020018083116101b257829003601f168201915b5050505050908060010180546101e4906105b1565b80601f0160208091040260200160405190810160405280929190818152602001828054610210906105b1565b801561025d5780601f106102325761010080835404028352916020019161025d565b820191906000526020600020905b81548152906001019060200180831161024057829003601f168201915b505050505090806002018054610272906105b1565b80601f016020809104026020016040519081016040528092919081815260200182805461029e906105b1565b80156102eb5780601f106102c0576101008083540402835291602001916102eb565b820191906000526020600020905b8154815290600101906020018083116102ce57829003601f168201915b505050505090806003018054610300906105b1565b80601f016020809104026020016040519081016040528092919081815260200182805461032c906105b1565b80156103795780601f1061034e57610100808354040283529160200191610379565b820191906000526020600020905b81548152906001019060200180831161035c57829003601f168201915b5050505050905084565b634e487b7160e01b600052604160045260246000fd5b600082601f8301126103aa57600080fd5b813567ffffffffffffffff808211156103c5576103c5610383565b604051601f8301601f19908116603f011681019082821181831017156103ed576103ed610383565b8160405283815286602085880101111561040657600080fd5b836020870160208301376000602085830101528094505050505092915050565b6000806000806080858703121561043c57600080fd5b843567ffffffffffffffff8082111561045457600080fd5b61046088838901610399565b9550602087013591508082111561047657600080fd5b61048288838901610399565b9450604087013591508082111561049857600080fd5b6104a488838901610399565b935060608701359150808211156104ba57600080fd5b506104c787828801610399565b91505092959194509250565b6000602082840312156104e557600080fd5b5035919050565b6000815180845260005b81811015610512576020818501810151868301820152016104f6565b506000602082860101526020601f19601f83011685010191505092915050565b60808152600061054560808301876104ec565b828103602084015261055781876104ec565b9050828103604084015261056b81866104ec565b9050828103606084015261057f81856104ec565b979650505050505050565b6000600182016105aa57634e487b7160e01b600052601160045260246000fd5b5060010190565b600181811c908216806105c557607f821691505b6020821081036105e557634e487b7160e01b600052602260045260246000fd5b50919050565b601f82111561063557600081815260208120601f850160051c810160208610156106125750805b601f850160051c820191505b818110156106315782815560010161061e565b5050505b505050565b815167ffffffffffffffff81111561065457610654610383565b6106688161066284546105b1565b846105eb565b602080601f83116001811461069d57600084156106855750858301515b600019600386901b1c1916600185901b178555610631565b600085815260208120601f198616915b828110156106cc578886015182559484019460019091019084016106ad565b50858210156106ea5787850151600019600388901b60f8161c191681555b5050505050600190811b0190555056fea2646970667358221220f0b0f0274edcd91ec935292945b6f3fcaa28675bbb6b95fa54aebe170727d21e64736f6c63430008150033",
  "immutableReferences": {},
  "source": "// SPDX-License-Identifier: MIT\r\npragma solidity ^0.8.0;\r\n\r\ncontract CropTraceability {\r\n\r\n    struct Crop {\r\n        string cropName;\r\n        string farmerId;\r\n        string harvestDate;\r\n        string qualityData;\r\n    }\r\n\r\n    mapping(uint256 => Crop) public crops;\r\n    uint256 public cropCount;\r\n\r\n    function registerCrop(\r\n        string memory cropName,\r\n        string memory farmerId,\r\n        string memory harvestDate,\r\n        string memory qualityData\r\n    ) public {\r\n        cropCount++;\r\n        crops[cropCount] = Crop(\r\n            cropName,\r\n            farmerId,\r\n            harvestDate,\r\n            qualityData\r\n        );\r\n    }\r\n}\r\n",
  "sourcePath": "C:\\Users\\User\\Desktop\\FarmX-Project\\FarmXChain\\blockchain\\contracts\\CropTraceability.sol",
  "compiler": {
    "name": "solc",
    "version": "0.8.21+commit.d9974bed.Emscripten.clang"
  },
  "schemaVersion": "3.4.16",
  "updatedAt": "2026-01-31T14:04:25.347Z",
  "networkType": "ethereum",
  "devdoc": {
    "kind": "dev",
    "methods": {},
    "version": 1
  },
  "userdoc": {
    "kind": "user",
    "methods": {},
    "version": 1
  }
}