{
  "contractName": "CropRegistry",
  "abi": [
    {
      "anonymous": false,
      "inputs": [
        {
          "indexed": false,
          "internalType": "uint256",
          "name": "id",
          "type": "uint256"
        },
        {
          "indexed": false,
          "internalType": "string",
          "name": "name",
          "type": "string"
        },
        {
          "indexed": false,
          "internalType": "string",
          "name": "farmerId",
          "type": "string"
        }
      ],
      "name": "CropRegistered",
      "type": "event"
    },
    {
      "inputs": [],
      "name": "cropCount",
      "outputs": [
        {
          "internalType": "uint256",
          "name": "",
          "type": "uint256"
        }
      ],
      "stateMutability": "view",
      "type": "function",
      "constant": true
    },
    {
      "inputs": [
        {
          "internalType": "uint256",
          "name": "",
          "type": "uint256"
        }
      ],
      "name": "crops",
      "outputs": [
        {
          "internalType": "uint256",
          "name": "id",
          "type": "uint256"
        },
        {
          "internalType": "string",
          "name": "name",
          "type": "string"
        },
        {
          "internalType": "string",
          "name": "farmerId",
          "type": "string"
        },
        {
          "internalType": "string",
          "name": "harvestDate",
          "type": "string"
        },
        {
          "internalType": "string",
          "name": "qualityData",
          "type": "string"
        }
      ],
      "stateMutability": "view",
      "type": "function",
      "constant": true
    },
    {
      "inputs": [
        {
          "internalType": "string",
          "name": "_name",
          "type": "string"
        },
        {
          "internalType": "string",
          "name": "_farmerId",
          "type": "string"
        },
        {
          "internalType": "string",
          "name": "_harvestDate",
          "type": "string"
        },
        {
          "internalType": "string",
          "name": "_qualityData",
          "type": "string"
        }
      ],
      "name": "registerCrop",
      "outputs": [],
      "stateMutability": "nonpayable",
      "type": "function"
    },
    {
      "inputs": [
        {
          "internalType": "uint256",
          "name": "_id",
          "type": "uint256"
        }
      ],
      "name": "getCrop",
      "outputs": [
        {
          "internalType": "uint256",
          "name": "id",
          "type": "uint256"
        },
        {
          "internalType": "string",
          "name": "name",
          "type": "string"
        },
        {
          "internalType": "string",
          "name": "farmerId",
          "type": "string"
        },
        {
          "internalType": "string",
          "name": "harvestDate",
          "type": "string"
        },
        {
          "internalType": "string",
          "name": "qualityData",
          "type": "string"
        }
      ],
      "stateMutability": "view",
      "type": "function",
      "constant": true
    }
  ],
  "bytecode": "0x608060405234801561001057600080fd5b50610a84806100206000396000f3fe608060405234801561001057600080fd5b506004361061004c5760003560e01c8063509355221461005157806370c9f1a5146100665780638bc7fa9c14610093578063dfd55a2c146100a6575b600080fd5b61006461005f36600461073e565b6100bd565b005b6100796100743660046107eb565b6101a8565b60405161008a95949392919061084a565b60405180910390f35b6100796100a13660046107eb565b6103f7565b6100af60015481565b60405190815260200161008a565b600180549060006100cd836108a9565b90915550506040805160a0810182526001805480835260208084018981528486018990526060850188905260808501879052600092835290829052939020825181559251919291908201906101229082610959565b50604082015160028201906101379082610959565b506060820151600382019061014c9082610959565b50608082015160048201906101619082610959565b509050507f4c0e512efc403ada62ae898d06422c5b24bf17ef275a583c3e2a4f7339c21b55600154858560405161019a93929190610a19565b60405180910390a150505050565b600060208190529081526040902080546001820180549192916101ca906108d0565b80601f01602080910402602001604051908101604052809291908181526020018280546101f6906108d0565b80156102435780601f1061021857610100808354040283529160200191610243565b820191906000526020600020905b81548152906001019060200180831161022657829003601f168201915b505050505090806002018054610258906108d0565b80601f0160208091040260200160405190810160405280929190818152602001828054610284906108d0565b80156102d15780601f106102a6576101008083540402835291602001916102d1565b820191906000526020600020905b8154815290600101906020018083116102b457829003601f168201915b5050505050908060030180546102e6906108d0565b80601f0160208091040260200160405190810160405280929190818152602001828054610312906108d0565b801561035f5780601f106103345761010080835404028352916020019161035f565b820191906000526020600020905b81548152906001019060200180831161034257829003601f168201915b505050505090806004018054610374906108d0565b80601f01602080910402602001604051908101604052809291908181526020018280546103a0906108d0565b80156103ed5780601f106103c2576101008083540402835291602001916103ed565b820191906000526020600020905b8154815290600101906020018083116103d057829003601f168201915b5050505050905085565b600060608060608060008060008881526020019081526020016000206040518060a001604052908160008201548152602001600182018054610438906108d0565b80601f0160208091040260200160405190810160405280929190818152602001828054610464906108d0565b80156104b15780601f10610486576101008083540402835291602001916104b1565b820191906000526020600020905b81548152906001019060200180831161049457829003601f168201915b505050505081526020016002820180546104ca906108d0565b80601f01602080910402602001604051908101604052809291908181526020018280546104f6906108d0565b80156105435780601f1061051857610100808354040283529160200191610543565b820191906000526020600020905b81548152906001019060200180831161052657829003601f168201915b5050505050815260200160038201805461055c906108d0565b80601f0160208091040260200160405190810160405280929190818152602001828054610588906108d0565b80156105d55780601f106105aa576101008083540402835291602001916105d5565b820191906000526020600020905b8154815290600101906020018083116105b857829003601f168201915b505050505081526020016004820180546105ee906108d0565b80601f016020809104026020016040519081016040528092919081815260200182805461061a906108d0565b80156106675780601f1061063c57610100808354040283529160200191610667565b820191906000526020600020905b81548152906001019060200180831161064a57829003601f168201915b5050509190925250508151602083015160408401516060850151608090950151929c919b5099509297509550909350505050565b634e487b7160e01b600052604160045260246000fd5b600082601f8301126106c257600080fd5b813567ffffffffffffffff808211156106dd576106dd61069b565b604051601f8301601f19908116603f011681019082821181831017156107055761070561069b565b8160405283815286602085880101111561071e57600080fd5b836020870160208301376000602085830101528094505050505092915050565b6000806000806080858703121561075457600080fd5b843567ffffffffffffffff8082111561076c57600080fd5b610778888389016106b1565b9550602087013591508082111561078e57600080fd5b61079a888389016106b1565b945060408701359150808211156107b057600080fd5b6107bc888389016106b1565b935060608701359150808211156107d257600080fd5b506107df878288016106b1565b91505092959194509250565b6000602082840312156107fd57600080fd5b5035919050565b6000815180845260005b8181101561082a5760208185018101518683018201520161080e565b506000602082860101526020601f19601f83011685010191505092915050565b85815260a06020820152600061086360a0830187610804565b82810360408401526108758187610804565b905082810360608401526108898186610804565b9050828103608084015261089d8185610804565b98975050505050505050565b6000600182016108c957634e487b7160e01b600052601160045260246000fd5b5060010190565b600181811c908216806108e457607f821691505b60208210810361090457634e487b7160e01b600052602260045260246000fd5b50919050565b601f82111561095457600081815260208120601f850160051c810160208610156109315750805b601f850160051c820191505b818110156109505782815560010161093d565b5050505b505050565b815167ffffffffffffffff8111156109735761097361069b565b6109878161098184546108d0565b8461090a565b602080601f8311600181146109bc57600084156109a45750858301515b600019600386901b1c1916600185901b178555610950565b600085815260208120601f198616915b828110156109eb578886015182559484019460019091019084016109cc565b5085821015610a095787850151600019600388901b60f8161c191681555b5050505050600190811b01905550565b838152606060208201526000610a326060830185610804565b8281036040840152610a448185610804565b969550505050505056fea2646970667358221220c57c7fb5c7fab662694d743db3fba19dde4364dd6e9389febd3aedb65a4303db64736f6c63430008150033",
  "immutableReferences": {},
  "source": "// SPDX-License-Identifier: MIT\r\npragma solidity ^0.8.0;\r\n\r\ncontract CropRegistry {\r\n    struct Crop {\r\n        uint256 id;\r\n        string name;\r\n        string farmerId;\r\n        string harvestDate;\r\n        string qualityData;\r\n    }\r\n\r\n    mapping(uint256 => Crop) public crops;\r\n    uint256 public cropCount;\r\n\r\n    // Event for when a crop is registered\r\n    event CropRegistered(uint256 id, string name, string farmerId);\r\n\r\n    function registerCrop(\r\n        string memory _name,\r\n        string memory _farmerId,\r\n        string memory _harvestDate,\r\n        string memory _qualityData\r\n    ) public {\r\n        cropCount++;\r\n        crops[cropCount] = Crop(\r\n            cropCount,\r\n            _name,\r\n            _farmerId,\r\n            _harvestDate,\r\n            _qualityData\r\n        );\r\n        emit CropRegistered(cropCount, _name, _farmerId);\r\n    }\r\n\r\n    function getCrop(uint256 _id) public view returns (\r\n        uint256 id,\r\n        string memory name,\r\n        string memory farmerId,\r\n        string memory harvestDate,\r\n        string memory qualityData\r\n    ) {\r\n        Crop memory crop = crops[_id];\r\n        return (\r\n            crop.id,\r\n            crop.name,\r\n            crop.farmerId,\r\n            crop.harvestDate,\r\n            crop.qualityData\r\n        );\r\n    }\r\n}\r\n",
  "sourcePath": "C:\\Users\\User\\Desktop\\FarmX-Project\\FarmXChain\\blockchain\\contracts\\CropRegistry.sol",
  "compiler": {
    "name": "solc",
    "version": "0.8.21+commit.d9974bed.Emscripten.clang"
  },
  "schemaVersion": "3.4.16",
  "updatedAt": "2026-01-31T14:04:25.352Z",
  "networkType": "ethereum",
  "devdoc": {
    "kind": "dev",
    "methods": {},
    "version": 1
  },
  "userdoc": {
    "kind": "user",
    "methods": {},
    "version": 1
  }
}